{
  "transactions": [
    {
      "hash": "0xa0c8231184491b31526beb49f4faa78809a9d8f3996c25bbff697751a54ce636",
      "transactionType": "CALL",
      "contractName": null,
      "contractAddress": "0x7e2569669d07d01523eadfc06994b9ad39bc7475",
      "function": "addPublisher(address)",
      "arguments": [
        "0xDA7d7Dad11720eB8b4EbC99f54f4D1073295Eb5B"
      ],
      "transaction": {
        "from": "0xae43f043005e3f750dbfb0a7d712fec7e580b7c3",
        "to": "0x7e2569669d07d01523eadfc06994b9ad39bc7475",
        "gas": "0x110ce",
        "value": "0x0",
        "input": "0x763f323d000000000000000000000000da7d7dad11720eb8b4ebc99f54f4d1073295eb5b",
        "nonce": "0xda",
        "chainId": "0x106a"
      },
      "additionalContracts": [],
      "isFixedGasLimit": false
    }
  ],
  "receipts": [
    {
      "status": "0x1",
      "cumulativeGasUsed": "0x16f13",
      "logs": [
        {
          "address": "0x7e2569669d07d01523eadfc06994b9ad39bc7475",
          "topics": [
            "0x466d40d3c5afb07f32aa87fa68d587f144c6fee2dfb883b3363937d5427e0442",
            "0x000000000000000000000000da7d7dad11720eb8b4ebc99f54f4d1073295eb5b"
          ],
          "data": "0x",
          "blockHash": "0xbf2cb48b94709cfad42b1b52a0015eeb97777aa71b07c8bd3f5f5f847461c736",
          "blockNumber": "0x1c17053",
          "blockTimestamp": "0x6927e386",
          "transactionHash": "0xa0c8231184491b31526beb49f4faa78809a9d8f3996c25bbff697751a54ce636",
          "transactionIndex": "0x1",
          "logIndex": "0x0",
          "removed": false
        }
      ],
      "logsBloom": "0x00000000000000000000000000000000000000000000000000000000000000000000000004000000000000000000000000000000000000000000000000000000000000000000000000000000000000000000000000000020000000000000000010000000000000000000000000800040000000000000000000000000000000000000000000000200000000000000000000000000000000000000000000000000000000000000100000000000000000000000000000800000000000000000000000000000000000004000000000000000000000000000000000000000000000000000000000000000000000000000000000000000000000000000000000000000",
      "type": "0x2",
      "transactionHash": "0xa0c8231184491b31526beb49f4faa78809a9d8f3996c25bbff697751a54ce636",
      "transactionIndex": "0x1",
      "blockHash": "0xbf2cb48b94709cfad42b1b52a0015eeb97777aa71b07c8bd3f5f5f847461c736",
      "blockNumber": "0x1c17053",
      "gasUsed": "0xba89",
      "effectiveGasPrice": "0xfe",
      "blobGasUsed": "0x9c40",
      "from": "0xae43f043005e3f750dbfb0a7d712fec7e580b7c3",
      "to": "0x7e2569669d07d01523eadfc06994b9ad39bc7475",
      "contractAddress": null,
      "daFootprintGasScalar": "0x190",
      "l1BaseFeeScalar": "0x2af8",
      "l1BlobBaseFee": "0xb26c14f",
      "l1BlobBaseFeeScalar": "0x109618",
      "l1Fee": "0x10f0d7796c",
      "l1GasPrice": "0xb189fa17",
      "l1GasUsed": "0x640"
    }
  ],
  "libraries": [],
  "pending": [],
  "returns": {},
  "timestamp": 1764221830702,
  "chain": 4202,
  "commit": "4bbef2e"
}